{
  "_format": "hh-sol-artifact-1",
  "contractName": "DemoRelayTarget",
  "sourceName": "src/DemoRelayTarget.sol",
  "abi": [
    {
      "anonymous": false,
      "inputs": [
        {
          "indexed": true,
          "internalType": "address",
          "name": "caller",
          "type": "address"
        },
        {
          "indexed": false,
          "internalType": "string",
          "name": "message",
          "type": "string"
        }
      ],
      "name": "Ping",
      "type": "event"
    },
    {
      "inputs": [
        {
          "internalType": "string",
          "name": "message",
          "type": "string"
        }
      ],
      "name": "ping",
      "outputs": [],
      "stateMutability": "nonpayable",
      "type": "function"
    }
  ],
  "bytecode": "0x608060405234801561001057600080fd5b50610163806100206000396000f3fe608060405234801561001057600080fd5b506004361061002b5760003560e01c80633adb191b14610030575b600080fd5b61004361003e36600461008c565b610045565b005b336001600160a01b03167f92b63c92568c54f16a06a1bc05698c40a9313bc847ec5bc1db177ffd7cde187483836040516100809291906100fe565b60405180910390a25050565b6000806020838503121561009f57600080fd5b823567ffffffffffffffff808211156100b757600080fd5b818501915085601f8301126100cb57600080fd5b8135818111156100da57600080fd5b8660208285010111156100ec57600080fd5b60209290920196919550909350505050565b60208152816020820152818360408301376000818301604090810191909152601f909201601f1916010191905056fea26469706673582212206442a9e94cd310b4408929c9aa0bed9b61ea0dd68d09ca2b9fb95149ca14b69d64736f6c63430008180033",
  "linkReferences": {},
  "deployedLinkReferences": {}
}